:100000000C945D000C9485000C9485000C94850084
:100010000C9485000C9485000C9485000C9485004C
:100020000C9485000C9485000C9485000C9493012D
:100030000C9485000C9485000C9485000C9485002C
:100040000C9449010C9485000C9485000C94850057
:100050000C9485000C9485000C9485000C9485000C
:100060000C9485000C94850000000008000201003B
:100070000003040700000000000000000000000072
:10008000250028002B0000000000240027002A0083
:10009000040404040404040402020202020203032E
:1000A0000303030301020408102040800102040836
:1000B0001020010204081020C30211241FBECFEF3C
:1000C000D8E0DEBFCDBF11E0A0E0B1E0ECECF5E0A0
:1000D00002C005900D92A030B107D9F721E0A0E051
:1000E000B1E001C01D92A233B207E1F710E0CDE507
:1000F000D0E004C02197FE010E94DE02CC35D1077A
:10010000C9F70E944F020C94E4020C94000090E0A6
:10011000FC01EC55FF4F249180579F4FFC018491C7
:10012000882399F090E0880F991FFC01EA57FF4F50
:10013000A591B491FC01E458FF4F859194918FB73C
:10014000F894EC91E22BEC938FBF089590E0FC01C2
:10015000E859FF4F2491FC01EC55FF4F3491FC010D
:10016000E057FF4FE491EE23C9F0222339F023300A
:1001700001F1A8F4213019F1223029F1F0E0EE0F5D
:10018000FF1FE458FF4FA591B4918FB7F894EC91FD
:10019000611126C030953E233C938FBF08952730D0
:1001A000A9F02830C9F0243049F7809180008F7D74
:1001B00003C0809180008F7780938000DFCF84B56B
:1001C0008F7784BDDBCF84B58F7DFBCF8091B0006E
:1001D0008F778093B000D2CF8091B0008F7DF9CF20
:1001E0003E2BDACF3FB7F89480912E0190912F01EA
:1001F000A0913001B091310126B5A89B05C02F3FD9
:1002000019F00196A11DB11D3FBFBA2FA92F982F3C
:100210008827BC01CD01620F711D811D911D42E037
:10022000660F771F881F991F4A95D1F708958F92FF
:100230009F92AF92BF92CF92DF92EF92FF924B01CB
:100240005C010E94F2006B017C010E94F2006C19BB
:100250007D098E099F09683E734081059105A8F3C9
:1002600021E0821A9108A108B10888EEC80E83E047
:10027000D81EE11CF11C81149104A104B10429F7DA
:10028000FF90EF90DF90CF90BF90AF909F908F90B6
:1002900008951F920F920FB60F9211242F933F9340
:1002A0008F939F93AF93BF9380912A0190912B01DD
:1002B000A0912C01B0912D013091290123E0230F51
:1002C0002D3758F50196A11DB11D2093290180936A
:1002D0002A0190932B01A0932C01B0932D018091C2
:1002E0002E0190912F01A0913001B0913101019622
:1002F000A11DB11D80932E0190932F01A093300179
:10030000B0933101BF91AF919F918F913F912F9108
:100310000F900FBE0F901F90189526E8230F02969E
:10032000A11DB11DD2CF1F920F920FB60F921124B3
:100330002F933F934F935F936F937F938F939F93ED
:10034000AF93BF93CF93DF93EF93FF9380912801F7
:10035000C0912701D0E087FF24C010928500109241
:100360008400809128018F5F80932801809128016B
:10037000082E000C990B8C179D0724F480912801FE
:100380008C30C4F180918400909185000496803473
:100390009C4908F47AC0809184009091850004966D
:1003A00076C080912801082E000C990B8C179D07B0
:1003B000C4F6E09128018E2FEE0F990BFC01EE0F91
:1003C000FF1FE80FF91FED5FFE4F808186FFC9CF49
:1003D000E09128018E2FEE0F990BFC01EE0FFF1F0D
:1003E000E80FF91FED5FFE4F808160E08F730E9480
:1003F000A600B7CF2091840030918500E0912801BC
:100400008E2FEE0F990BFC01EE0FFF1FE80FF91F67
:10041000ED5FFE4F81819281820F931F909389003F
:1004200080938800E09128018E2FEE0F990BFC013C
:10043000EE0FFF1FE80FF91FED5FFE4F808186FF73
:1004400011C0E09128018E2FEE0F990BFC01EE0FE9
:10045000FF1FE80FF91FED5FFE4F808161E08F7392
:100460000E94A600FF91EF91DF91CF91BF91AF91D4
:100470009F918F917F916F915F914F913F912F91BC
:100480000F900FBE0F901F90189580E49CE99093F9
:100490008900809388008FEF80932801E3CF7894C0
:1004A00084B5826084BD84B5816084BD85B5826079
:1004B00085BD85B5816085BD80916E00816080932A
:1004C0006E00109281008091810082608093810093
:1004D00080918100816080938100809180008160A3
:1004E000809380008091B10084608093B1008091FE
:1004F000B00081608093B00080917A008460809326
:100500007A0080917A00826080937A0080917A00EC
:10051000816080937A0080917A00806880937A006D
:100520001092C10089E00E9487008AE00E94870043
:1005300060E089E00E94A60060E08AE00E94A600D8
:10054000C0E0D0E061E089E00E94A60061E08AE0BE
:100550000E94A60064EF71E080E090E00E94170125
:1005600060E089E00E94A60060E08AE00E94A600A8
:1005700060E177E280E090E00E941701209711F39C
:100580000E940000DFCF809127018C3098F491E029
:10059000980F909327018093000190E0FC01EE0FEB
:1005A000FF1FE80FF91FED5FFE4F88EB9BE0928382
:1005B000818308958FEF809300010895EE0FFF1F50
:0C05C0000590F491E02D0994F894FFCF11
:00000001FF
